:100000000C948A020C94D1020C94D1020C94D1026B
:100010000C94D1020C94D1020C94D1020C94D10214
:100020000C94D1020C94D1020C94CC210C949E22FD
:100030000C94031D0C94D1020C94D1020C94D102A7
:100040000C94D1020C94D1020C94D1020C94D102E4
:100050000C94D1020C945C1D0C94D1020C94D1022E
:100060000C94D1020C94D1020C94D1020C94D102C4
:100070000C94D1020C94D1020C94D1020C94D102B4
:100080000C94D1020C94D1020C94D1020C94D102A4
:100090000C94D1020C94D1020C94D1020C94D10294
:1000A0000C94D1020C94D1020C94D1020C090C09CD
:1000B0003E093E098409A209C20AC20AAD09420AE0
:1000C000530A530AB20AC20AC20ABB0A700B700B67
:1000D000820B820B790B820B820B820B700B700BE5
:1000E0007E0B820B820B7E0B0B2332232A243223BE
:1000F0002A247E23A1232A24F82307242E001E006D
:100100001F0020002100220050004F002300240087
:100110002500260027002D004C0014001A000800BE
:1001200015001700015301531C0018000C001200A9
:10013000130031002A0004001600070009000A001D
:10014000000000000B000D000E000F003342346869
:10015000E1001D611B00060019000500006F00672B
:1001600011001000360037003861E50035413400D9
:10017000E10450004F0000000000000000005200A9
:1001800051002F003000015800004D002A002C00C3
:100190004A006564E300E20029614B0028002B005F
:1001A0004E00000000003A003B003C003D003E00D5
:1001B000010001003F0040004100420043004400B4
:1001C00001001E021F022F02300231020100010055
:1001D00052002400250026002502450001002002CF
:1001E00021022602270235000000000051002100F4
:1001F000220023002E0201000100220223022F0010
:10020000300035020100010024021E001F00200002
:1002100031000100DF5C010001000100010000006D
:100220000000000000000100370027002E00010040
:1002300000000100CA5CCB5C0100C45C0100C35C2F
:10024000CE5C0100C65CC75C01000000010001003B
:100250000100010001000100010001000100010096
:100260000100010001000100010001000100ED009A
:100270000100010001000100010001000100010076
:100280000100010001000100EF00EE00F00001009C
:100290000000000001000100010001000100AE00AB
:1002A0000100010001000100010001000100010046
:1002B00001000100AC00AB000100010001000100E1
:1002C0000100F100F2000000000000000000A900A1
:1002D000AA00A800010001000000010001000100C7
:1002E000010001000100010001000100B600010051
:1002F0000100000000000000000000002A2B280080
:1003000000000000000000000000000000000029C4
:10031000000000002C1E3420212224342627252E04
:10032000362D3738271E1F2021222324252633333C
:10033000362E37381F0405060708090A0B0C0D0E68
:100340000F101112131415161718191A1B1C1D2F34
:100350003130232D350405060708090A0B0C0D0E54
:100360000F101112131415161718191A1B1C1D2F14
:100370003130354C0000000000000000000000009B
:10038000000000000000000000000000000000006D
:1003900000000000000000007E0F00D4FFFFFFC738
:1003A0000000007812034500720067006F004400EF
:1003B0006F006E006500000012034B002E00540019
:1003C0002E0045002E0043002E0000000403090407
:1003D00009023B00020100A0FA0904000001030128
:1003E00001000921110100012240000705810308D5
:1003F000000A0904010001030000000921110100A5
:100400000122B6000705820320000A120100020043
:10041000000008091228230100010200010501095A
:1004200002A10185020901A1000509190129081588
:100430000025019508750181020501093009311572
:1004400081257F95027508810609381581257F95DC
:100450000175088106050C0A38021581257F950172
:1004600075088106C0C005010980A1018503190135
:100470002AB700150126B700950175108100C00547
:100480000C0901A101850419012AA002150126A069
:1004900002950175108100C005010906A1018505BD
:1004A000050719E029E71500250195087501810266
:1004B0000507190029EF1500250195F07501810246
:1004C0000508190129059505750191029501750326
:1004D0009101C005010906A101050719E029E715E9
:1004E00000250195087501810295017508810105B6
:1004F00007190029FF150026FF00950675088100E1
:1005000005081901290595057501910295017503E5
:100510009101C00011241FBECFEFDAE0DEBFCDBFD6
:1005200004B603FE27C08091E5029091E602A091F7
:10053000E702B091E8028730904BA740B04BD1F46E
:100540001092E5021092E6021092E7021092E80281
:1005500014BE84B7877F84BF0FB6F894A8958091A6
:100560006000886180936000109260000FBEE0E040
:10057000F8E3099511E0A0E0B1E0E0EAF9E402C097
:1005800005900D92A637B107D9F722E0A6E7B1E0B2
:1005900001C01D92A53EB207E1F70E940E160C9411
:1005A000CE240C9400001092B9008AE08093B80029
:1005B000089594EA9093BC009091BC0097FFFCCF03
:1005C0009091B900987F983021F0903111F081E03E
:1005D00008958093BB0084E88093BC008091BC00A8
:1005E00087FFFCCF8091B900887F883111F080347B
:1005F00071F780E008950C94D90284E98093BC00DF
:100600008091BC0084FDFCCF08958093BB0084E8FA
:100610008093BC008091BC0087FFFCCF9091B90013
:10062000987F81E0983209F480E0089584E880930F
:10063000BC008091BC0087FFFCCF8091BB00089577
:1006400080B38F7080BB81B38F7081BB84B1897F91
:1006500084B985B1897F85B90C949E046E98769A89
:100660008AB183768AB98BB18C698BB93E98469AE8
:1006700024982C9A0C94D30408950C943C030C9465
:100680003C030E9420030E942E03ECECF1E088E77B
:1006900091E011921192DC012EE01D922150E9F7B8
:1006A0000E9621E08C3C9207A1F70C9455060E940F
:1006B00020030E942E03ECECF1E0118210821382E1
:1006C0001282158214821782168211861086138672
:1006D000128608952EE0829FC0011124FC01E85883
:1006E000FE4F20E030E040E050E061E070E09081BB
:1006F000992319F09150908309C0CB01022E02C0BA
:10070000880F991F0A94E2F7482B592B2F5F3F4F10
:1007100031962E30310559F7CA010895CF932EE056
:10072000629FB001112420E030E0A1E0B0E0C5E01C
:10073000AD01022E02C0440F551F0A94E2F7482370
:100740005923452B31F0FB01E20FF31FE858FE4F10
:10075000C0832F5F3F4F2E30310551F7CF91089561
:100760004F925F927F928F929F92AF92BF92CF9261
:10077000DF92EF92FF920F931F93CF93DF930E942C
:10078000B9040CEC11E0C0E0D1E0C33099F028F4DA
:10079000C13051F0C23059F004C0C43071F0C530DE
:1007A00079F0849A8C980EC0859A8D980BC0869AA1
:1007B0008E9808C0879A8F9805C0219A299802C000
:1007C000229A2A988C2F0E94A20480EA8A95F1F737
:1007D0008C2F0E946A035C010E9404054B9904C09F
:1007E00060E4E62EF12C02C0E12CF12C4A9903C002
:1007F000A0E2B0E002C0A0E0B0E04C9904C050E13B
:10080000452E512C02C0412C512C369903C068E072
:1008100070E002C060E070E029B1022E000C330BE2
:10082000209530952227330F221F3327220F331FA5
:10083000220F331F669903C042E050E002C040E03F
:1008400050E073B0F801C080D1807294EFE07E2256
:100850007D2670FA882480F8912C882999298E2980
:100860009F298A2B9B2BF201E82BF92B6E2B7F2BD8
:10087000262B372B422B532B4C255D25A422B5224A
:10088000AC24BD246C2FC6018A259B250E948E03B3
:10089000F801A192B1928F010E942003CF5FC63070
:1008A00009F073CF0E945D0681E0DF91CF911F9127
:1008B0000F91FF90EF90DF90CF90BF90AF909F90FF
:1008C0008F907F905F904F900895E82FF0E0EE0FAB
:1008D000FF1FE453FE4F8081918108950895853074
:1008E00008F08F5F2091D80130E0A90102C0559532
:1008F00047958A95E2F7CA01817008951F93CF93B7
:10090000DF93C091D901CC23A1F0D62F182F80E41A
:100910000E94D902C82F81110AC0812F0E940503AD
:10092000C82F811104C08D2F0E940503C82F0E947B
:10093000FD028C2FDF91CF911F9108956FEF81E021
:100940000C947E048F5F61E070E001C0660F8A95B1
:10095000EAF7609581E00C947E046FEF82E00E94DC
:100960007E046FEF8CE00E947E046FEF81E00C94B8
:100970007E0480E40E94D90281110CC00E94FD0215
:100980008091D90181110EC081E08093D9010E942C
:10099000AD0406C08091D901813021F41092D901B3
:1009A0000C945E0B08950E94D3020C94B9040F932B
:1009B0001F93CF93DF93C091D901CC23D1F08B014A
:1009C000D82F80E40E94D902C82F811110C08D2F2A
:1009D0000E940503C82F81110AC081E40E94FB0216
:1009E000C82F811104C00E941603F80180830E9461
:1009F000FD028C2FDF91CF911F910F91089568ED2B
:100A000071E082E10C94D7048F929F92AF92BF92D3
:100A1000EF92FF920F931F93CF93DF930E94FF04F7
:100A2000C0E0D0E000E010E08DE0E82EF12C812C59
:100A3000912C540183948C2F0E946F04882371F0B1
:100A4000C7018C1B9D0BA501940104C0220F331F0D
:100A5000441F551F8A95D2F7022B132B2196CE30B7
:100A6000D10549F7C801DF91CF911F910F91FF90F8
:100A7000EF90BF90AF909F908F90089584B188665B
:100A800084B985B1877985B9209A289A559A5D9A53
:100A9000089525982D9826982E9823982B9820987D
:100AA000289A259A2D9A2FEF80E792E021508040D6
:100AB0009040E1F700C00000269A2E9A2FEF80E7C1
:100AC00092E0215080409040E1F700C00000239A5E
:100AD0002B9A2FEF80E792E0215080409040E1F781
:100AE00000C0000025982D982FEF80E792E021505C
:100AF00080409040E1F700C0000026982E982FEF2C
:100B000080E792E0215080409040E1F700C0000073
:100B100023982B9825982D9826982E9823982B98D3
:100B20002098289A08950E943E050E9449050C9439
:100B30003D039C013A9521153F4130F5BC016627E4
:100B40007270AC01442754709C012227387094FFC6
:100B50000FC090FF02C080E101C080E0672B09F068
:100B60008062452B09F08064232B79F0806808951A
:100B7000892F8170672B09F08260452B09F0846012
:100B8000232B19F08860089580E00895CF93DF93B8
:100B9000EC01805E9109089710F0209731F4CE01A6
:100BA0000E9499050E94CB0805C0CE010E949905BC
:100BB0000E94360B8C2FDF91CF910C949907CF9325
:100BC000DF93EC010E944308CE01805E91090897F3
:100BD00010F0209739F4CE010E949905DF91CF9152
:100BE0000C94D208CE010E949905DF91CF910C940C
:100BF0003D0BCF93DF93EC010E94C605CE01DF9140
:100C0000CF910C94DF0581E0089581E008950C9464
:100C1000050608950C9409061F93CF93DF9300D027
:100C200000D01F92CDB7DEB749835A836B833091D2
:100C3000DA0189819A81311114C0662359F0222387
:100C400049F00E94140D182F682F89819A810E9403
:100C5000BD0C03C00E94E80C182F69817A81812F96
:100C600004C00E94140D69817A810F900F900F903B
:100C70000F900F90DF91CF911F910C94BD13FC0149
:100C8000262F408151816281738184810C940C06EE
:100C900081E00895CF93DF93EC0160E00E943F066E
:100CA000BE01DF91CF910C940A060E94EA150E94C2
:100CB0003F070E94C1180C9493050C943F030895BC
:100CC0000E945E0B0E945F062FEF84E39CE02150A0
:100CD00080409040E1F700C000000C94821D0F930B
:100CE0001F93CF93DF938C0161E00E943F06EC01DC
:100CF000B8010E940706882309F444C0B801CE0158
:100D00000E9449198823F1F1B801CE010E94DA1935
:100D10008823C1F1B801CE010E942C1A882391F1D9
:100D2000B801CE010E94571B882361F1F80182812E
:100D3000882309F1CB358DE5D807C1F050F4C115F2
:100D4000FCE5DF0781F0CF3DDC45A9F40E94B2123B
:100D500019C0CC35EDE5DE0761F0CD35DD4559F440
:100D60000E94331108C00E9460060CC00E943C1112
:100D700002C00E943F11C801DF91CF911F910F91D6
:100D80000C94030680E0DF91CF911F910F9108959D
:100D9000DF92EF92FF920F931F93CF93DF93E82F91
:100DA000F0E0EC50FD4FD490282F269526952695FF
:100DB00030E0F901EC56FC4F0491877010E0082EEA
:100DC00002C0159507950A94E2F701701127F90101
:100DD000EC57FC4FE490F12C082E02C0F594E794F8
:100DE0000A94E2F791E0E922FF24F901EC58FC4F64
:100DF000C491D0E002C0D595C7958A95E2F7C1703D
:100E0000DD270115110519F081EE0E949907E11403
:100E1000F10419F086EE0E9499078D2D0E94C208F8
:100E2000EF2819F086EE0E944308012B19F081EE9D
:100E30000E944308CD2B51F08CE2DF91CF911F919E
:100E40000F91FF90EF90DF900C94C208DF91CF914B
:100E50001F910F91FF90EF90DF900895982F9F7052
:100E60009A50963010F0805D01C0895A0C94C806E3
:100E700008950C94380781E008950C943B07089579
:100E8000CF93C82F0E9439078C2F0E943D07CF9126
:100E90000895CF93DF93CDB7DEB72B970FB6F894B5
:100EA000DEBF0FBECDBF4F83588769877A878B8798
:100EB00061110E9465119E012F5F3F4F86E0F9018D
:100EC00011928A95E9F785E0FE013796D9010190E4
:100ED0000D928A95E1F789819A814C815D81452B3C
:100EE00031F09F3F31F491E08F3F19F403C091E05E
:100EF00001C090E090FF09C049815A816B817C81DB
:100F00008D819E810E94621005C0C9010E94480621
:100F10008111F2CF2B960FB6F894DEBF0FBECDBF76
:100F2000DF91CF910895FC01808191810E94560D3F
:100F30000895CF93882309F4A4C0C82F8238C1F440
:100F40000E948D1B81FD9DC069E3809100019091FD
:100F500001010E94861C0E9497112FEF81EE94E000
:100F6000215080409040E1F700C0000069E319C0C3
:100F7000833801F50E948D1B80FD83C063E580915D
:100F80000001909101010E94861C0E9497112FEF91
:100F900081EE94E0215080409040E1F700C00000D5
:100FA00063E580910001909101010E94911CCF9115
:100FB0000C9497118438C1F40E948D1B82FD61C08E
:100FC00067E480910001909101010E94861C0E94BB
:100FD00097112FEF81EE94E0215080409040E1F78F
:100FE00000C0000067E4DDCF8CEF8C0F813AD0F4B5
:100FF0006C2F80910001909101010E94061C8823B2
:1010000049F06C2F80910001909101010E94911C88
:101010000E9497116C2F80910001909101010E9414
:10102000861CC5CF80E28C0F883048F4C77081E001
:1010300001C0880FCA95EAF70E944511B8CFEBE5C9
:10104000EC0FE33040F4F0E0EF5BFE4F808190E086
:10105000CF910C94C41BE8E5EC0FE73150F4F0E0BD
:10106000EE0FFF1FED5EFE4F80819181CF910C94BA
:10107000DA1BCD3E30F08C2F0E949B16CF910C9442
:101080006D17CF910895882309F464C0823879F4EC
:101090000E948D1B81FF5EC069E3809100019091E9
:1010A00001010E94861C0E94971169E310C08338D9
:1010B000B1F40E948D1B80FF4DC063E5809100015B
:1010C000909101010E94861C0E94971163E5809116
:1010D0000001909101010E94911C0C949711843899
:1010E00079F40E948D1B82FF35C067E48091000176
:1010F000909101010E94861C0E94971167E4E7CF3E
:101100009CEF980F913A10F4682FE1CF90E2980F7E
:10111000983050F4877091E001C0990F8A95EAF7F2
:10112000892F0E944B11D9CF9BE5980F933020F463
:1011300080E090E00C94C41B98E5980F973120F460
:1011400080E090E00C94DA1B8D3E20F00E94F616B1
:101150000C946D1708951F93CF93DF93182FEB0115
:101160000E949907209741F08FE99FE00197F1F7DE
:1011700000C000002197F6CF812FDF91CF911F9102
:101180000C944308893319F060E070E002C060E518
:1011900070E00C94AB08882321F00E9445110C9458
:1011A00097110895882321F00E944B110C949711F8
:1011B0000895CF92DF92EF92FF920F931F93CF93F8
:1011C000DF937C01062FC72FFC01D2811581129578
:1011D0001F700E941A11882399F0DD2389F08C2F4B
:1011E000807F803421F080E2800F883048F082E0F8
:1011F0000E94E7110E941A1191E0D82ED92601C051
:10120000D12CCC2EC2948FE0C8228C2D90E0FC0112
:10121000EA5AFF4F0C9472248C2F807FCF70882362
:1012200011F0C295C07FDD2399F0CC2309F485C16C
:1012300080E2800F883010F0011104C08C2F0E94D2
:10124000451103C08C2F0E9458110E94971175C13F
:10125000802F0E944308CC2309F494C180E2800FC0
:10126000883010F0011104C08C2F0E944B1103C074
:101270008C2F0E945E110E94971184C18C2F807F59
:10128000CF70803211F0C295C07F002319F0013079
:10129000C9F024C0DD2371F0112341F0113031F485
:1012A0000E9478118C2B0E9480116CC10E947811D1
:1012B0008C2B0EC0112319F0113009F463C10E9468
:1012C0008D111EC0DD2339F0123008F05BC18C2F68
:1012D0000E94CB0857C1111155C112C0DD2319F06E
:1012E0001123A9F32AC1112359F0093309F036C19A
:1012F000FFEF27EE83E0F15020408040E1F72CC162
:101300008C2F0E94D2083EC18C2F869586958370C3
:1013100019F0813061F036C1DD2321F0802F9C2F40
:10132000937002C080E090E00E94C41B33C1DD23B3
:1013300021F0802F9C2F937002C080E090E00E94EB
:10134000DA1B28C1802FDD2319F00E949B1602C0F2
:101350000E94F6160E946D171DC18C2F837009F034
:1013600045C0D11113C1402F429546954770440F97
:10137000440F602F6F70862F90E0A0E0B0E0042E45
:1013800004C0880F991FAA1FBB1F0A94D2F704FF3D
:1013900010C00FE010E020E030E004C0000F111F8B
:1013A000221F331F4A95D2F700951095209530954E
:1013B00003C000E010E09801C695C695C370BC015B
:1013C000CD01602B712B822B932BC23049F058F446
:1013D000C13019F00E94D30BD9C00E94C10BD6C0F6
:1013E0000E94E50BD3C00E94BF0BD0C0DD2319F0D3
:1013F0008C2F817001C08695882309F4C7C0402FC7
:10140000429546954770440F440F602F6F70862FAA
:1014100090E0A0E0B0E0042E04C0880F991FAA1F3E
:10142000BB1F0A94D2F704FF10C00FE010E020E0C9
:1014300030E004C0000F111F221F331F4A95D2F75E
:10144000009510952095309503C000E010E09801BC
:10145000C695C695C370BC01CD01602B712B822B44
:10146000932BC23049F058F4C13019F00E94980C07
:101470008DC00E94860C8AC00E94AA0C87C00E9460
:10148000F90B84C0CF70DD2339F08C2F0E941F0C24
:10149000802F0E94CB087AC0802F0E94D2088C2F08
:1014A0000E94400C73C0023FF9F028F4003F41F065
:1014B000013F99F03EC0033FF1F0043F31F139C0E4
:1014C000DD2339F011115EC08C2F8F710E94650CE5
:1014D00059C0123008F056C0F7CFDD2339F08C2FF9
:1014E0008F710E941F0C4EC0DD23C9F38C2F8F71AA
:1014F0000E94400C47C0DD2329F08C2F8F710E9481
:101500000A0C40C00E94050C3DC0DD2349F0CF719C
:101510008C2F0E941F0C63E08C2F0E94CC1132C0D4
:1015200081E00E94E711123068F182E00E94E71129
:1015300029C0DD2331F0112391F2802F0E949907F9
:1015400021C0112399F2093349F49FEFE7EEF3E04C
:101550009150E040F040E1F700C00000802F0E9471
:10156000430810C04C2F4F70602FC7010E94B91361
:101570000E94840D0FC04C2F4F70602FC7010E9436
:10158000BC1308C088EF8C0D843020F40E948D1BA2
:101590000E944007DD20C9F00E94161180FD15C091
:1015A000F70112820E9410110E941F0CC7010E94B5
:1015B000060B0E941011DF91CF911F910F91FF90A8
:1015C000EF90DF90CF900C94400CDF91CF911F9162
:1015D0000F91FF90EF90DF90CF9008950F931F939E
:1015E000CF93DF93EC01688179818A810E94610D3C
:1015F0008C010E94BC0C0E94AD0BB801CE010E9470
:10160000D908DF91CF911F910F910895CF93DF9368
:10161000EC01988189812B813C81232B31F08F3F14
:1016200031F481E09F3F19F403C081E001C080E004
:1016300080FD19C0CE010E946F0681110CC00E946E
:101640001A11882381F08A81882369F082E0DF9172
:10165000CF910C94E711CE010E94EE0ACE01DF91EA
:10166000CF910C944A06DF91CF910895882321F001
:101670000E9458110C9497110895882321F00E941C
:101680005E110C949711089580E090E00E94C41BB5
:1016900080E090E00E94DA1B0E9465110E947511A3
:1016A0000E9497110E949E180C946D178091000162
:1016B000909101010E949C1C0C94440B0E945511B6
:1016C0000C94560BE92FE295EF704E2F50E0FA0183
:1016D0003297EE30F105B0F4EA59FF4F0C947224C2
:1016E000803F91F018F4883E68F40EC0843F51F4B6
:1016F0000BC0883E48F0813F29F406C093FB882741
:1017000080F9089580E0089581E00895FC018081CA
:1017100091810E94560D0E94620B0895CF93DF9332
:1017200000D000D01F92CDB7DEB70F900F900F9072
:101730000F900F90DF91CF910895CF93DF9300D05A
:1017400000D000D0CDB7DEB726960FB6F894DEBF36
:101750000FBECDBFDF91CF910895089508950C94E9
:10176000AE0B0C94AF0B0E94B10B609316027093FA
:10177000170280931802909319020C94440B0C9456
:10178000B30B0F931F930091160210911702209133
:10179000180230911902602B712B822B932B1F9111
:1017A0000F910C94B30B0F931F930091160210919D
:1017B00017022091180230911902602371238223AD
:1017C00093231F910F910C94B30B0F931F930091D0
:1017D0001602109117022091180230911902602709
:1017E0007127822793271F910F910C94B30B0C94B0
:1017F000AE0B0E94F70B609312027093130280935A
:101800001402909315020C94440B60E070E0CB013D
:101810000C94F90B0F931F9341E050E060E070E0EF
:101820008A019B0104C0000F111F221F331F8A95DC
:10183000D2F7C901B8011F910F910C94F90B0F93C6
:101840001F9341E050E060E070E004C0440F551F7A
:10185000661F771F8A95D2F780911202909113022A
:10186000A0911402B09115028A019B01082B192B3B
:101870002A2B3B2BC901B8011F910F910C94F90B36
:101880000F931F9341E050E060E070E004C0440F0C
:10189000551F661F771F8A95D2F740955095609522
:1018A00070958091120290911302A0911402B09150
:1018B00015028A019B01082319232A233B23C9010E
:1018C000B8011F910F910C94F90B0F931F9341E0F6
:1018D00050E060E070E004C0440F551F661F771FA2
:1018E0008A95D2F78091120290911302A09114026E
:1018F000B09115028A019B01082719272A273B2747
:10190000C901B8011F910F910C94F90B0F931F930C
:1019100000911202109113022091140230911502CD
:10192000602B712B822B932B1F910F910C94F90B31
:101930000F931F9300911202109113022091140231
:101940003091150260237123822393231F910F91FD
:101950000C94F90B0F931F93009112021091130234
:101960002091140230911502602771278227932756
:101970001F910F910C94F90B08952EE0929F800D0A
:101980001124E82FE695E695E695877051E001C0B1
:10199000550F8A95EAF785E0E89FF0011124E5529A
:1019A000FE4F20E030E070E04081CB01022E02C00B
:1019B000969587950A94E2F781708195842785230F
:1019C000842781932F5F3F4F2530310569F70895B4
:1019D0002EE0929F800D1124682F6695669566957E
:1019E000982F977085E0689FB001112440E050E087
:1019F00080E0FB01E40FF51FE552FE4F208130E04F
:101A0000092E02C0369527950A94E2F721703327F4
:101A1000042E01C0220F0A94EAF7822B4F5F5F4F1A
:101A20004530510531F70895BF92CF92DF92EF9282
:101A3000FF920F931F93CF93DF938C01C0901202FC
:101A4000D0901302E0901402F090150280911602DB
:101A500090911702A0911802B0911902C82AD92AB0
:101A6000EA2AFB2ACFE1D0E0D701C6010C2E04C040
:101A7000B695A795979587950A94D2F780FD04C0EF
:101A8000219790F7B12C07C0BC2EB8018C2F0E9473
:101A9000F4140197A9F38B2DDF91CF911F910F9132
:101AA000FF90EF90DF90CF90BF900895CF93DF939A
:101AB000EC010E94140DBE010E94F414DF91CF913D
:101AC00008951F93CF93DF93EB019091DA0199234F
:101AD00021F0CB010E94560D13C0882349F0CB01A1
:101AE0000E94140D182F682FCE010E94BD0C04C057
:101AF000CB010E94E80C182FBE01812F0E94F41424
:101B0000DF91CF911F910895EF92FF920F931F9352
:101B1000CF93DF938C01892B09F46CC0F12CEE2458
:101B2000E394E8012196F8018491843740F48430ED
:101B300008F051C0813081F0823019F15BC08537E7
:101B400009F444C0A8F19CE7980F903708F052C000
:101B50008F770E94430841C00E5F1F4FFE018491A2
:101B600090E2980F983050F48770FE2D01C0FF0F5F
:101B70008A95EAF78F2F0E94681114C00E94990776
:101B80002DC00E5F1F4FFE01849190E2980F983098
:101B900060F48770FE2D01C0FF0F8A95EAF78F2F42
:101BA0000E946E110E94971119C00E94430816C02E
:101BB0000E5F1F4FFE01C491CC2381F08FE99FE09F
:101BC0000197F1F700C00000C150F6CF0E5F1F4F24
:101BD000FE01F49003C00E9499078E018F2D882387
:101BE00009F49FCFEFE9FFE03197F1F700C0000063
:101BF0008150F5CFDF91CF911F910F91FF90EF9022
:101C000008951F93CF93DF93C0911A0216E080913D
:101C10001B02C81799F0D0E01C9FF0011D9FF00D2A
:101C20001124E45EFD4F4081518162817381848182
:101C300095810E949D0B2196C770E9CFDF91CF91CE
:101C40001F91089540914C0250914D0260914E02B7
:101C500070914F0280915002909151020C949D0B13
:101C60000F931F93CF93DF938091510282958F70D2
:101C700009F05DC080914E02882309F458C080911C
:101C80001A0210911B0260914C0270914D02C0919A
:101C90004F02D091500291E06F3F09F090E0292F60
:101CA00006E0811709F443C0209721F07F3F21F01F
:101CB00030E003C031E001C0322F90E030FD34C08D
:101CC000089FF001099FF00D1124DF01A45EBD4FB4
:101CD00011963C911197371327C03C91361324C0BD
:101CE00012963C91129731111FC013964D915C9141
:101CF00014974C1B5D0B483C5105B0F48091510288
:101D00008F70806180935102EF5DFD4F80818F70F5
:101D1000806180838CE492E00E94060BDF91CF917A
:101D20001F910F910C94010E01968770BACFDF912D
:101D3000CF911F910F9108959F92AF92BF92CF9232
:101D4000DF92EF92FF920F931F93CF93DF93CDB764
:101D5000DEB761970FB6F894DEBF0FBECDBF8C0122
:101D600085E0F801DE011D9601900D928A95E1F75C
:101D7000F801E28090914C0260914D0220914F0257
:101D8000309150022115310531F06F3F31F481E07F
:101D90009F3F19F403C081E001C080E0F82FF1708B
:101DA0009F2E80FD3FC1F80140815181A380B48006
:101DB0008CE4C82E82E0D82EF0904E02F501E21B92
:101DC000F30BFF2009F4D9C080915102E83CF105E2
:101DD00008F095C0282F207F09F052C0561313C079
:101DE000491311C0FE2CE1100EC08F7080618093EA
:101DF00051020E94220EC6010E94060B80915102E0
:101E0000F80185834CC1AB2831F05F3F31F481E0AC
:101E10004F3F19F403C081E001C080E080FD03C0A2
:101E200081E08E2502C080E090E0F82FF170FF2E57
:101E300080FF1CC080911A0220911B0236E082179D
:101E400009F40BC190E0389FF001399FF00D112487
:101E5000E45EFD4F6181561306C06081461303C0E6
:101E60006281E61203C001968770E9CFFE2CEE2056
:101E700009F415C18091510281608093510254C0D0
:101E8000561306C0491304C0E11002C0F80199C0FE
:101E9000C8010E94860B882361F1EE2051F1209148
:101EA0005102822F82958F7090E0029774F080919A
:101EB0004C0290914D0298878F831986BB86AA8623
:101EC0002C87CE0107960E94060B86E0F801ACE451
:101ED000B2E001900D928A95E1F70E94300E0E94C7
:101EE000220E0AC0561711F1C8010E94860B8111FB
:101EF0002CC0C8010E94060BFF24F394D0C0282FE9
:101F0000207F81F77A2DB98AA88A6E2D89890E944F
:101F10008E0B8CE492E00E94060B86E0F601119293
:101F20008A95E9F70E94220EF12CB9C04913DCCF43
:101F3000E110DACFF8018583C8010E94060B86E024
:101F4000F60111928A95E9F7AAC0EE2091F220914C
:101F50005102822F82958F7090E002970CF4B5CFDA
:101F600080914C0290914D029A8389831B82BD829D
:101F7000AC822E83CE010196A6CFE83CF10508F095
:101F800044C0FE2CEE2009F4B4CF561330C04913E0
:101F90002EC02091510220FD21C0822F82958F708A
:101FA000482F50E041155105C9F0F80125834F3005
:101FB000510541F08F5F982F9295907F822F8F70FF
:101FC000892B8583C8010E94060B86E0F801ACE4EA
:101FD000B2E001900D928A95E1F73CC086E0F801ED
:101FE000ACE4B2E001900D928A95E1F758C0C801C7
:101FF0000E94860B811169CF80915102816080938C
:102000005102C8010E94060B4AC07A2DB98AA88ADB
:102010006E2D89890E948E0B86E0F60111928A95B9
:10202000E9F718C0EE2009F464CFC8010E94860BBE
:10203000F82E882309F45DCF86E0F801ACE4B2E025
:1020400001900D928A95E1F78CE492E00E9493074B
:102050000E94300E0E94220E22C04D875E878D8521
:102060009E850E94560D292F22952F70223028F42C
:102070009F7039F0811105C00BC0243028F49F7087
:1020800049F4805E883020F0C8010E94060B9F2C26
:10209000F92C05C0F8019581907F99F7F9CF8F2D24
:1020A00061960FB6F894DEBF0FBECDBFDF91CF9122
:1020B0001F910F91FF90EF90DF90CF90BF90AF9066
:1020C0009F9008951F93CF93DF93CDB7DEB72C97E2
:1020D0000FB6F894DEBF0FBECDBF4F835887698718
:1020E0007A878B879C87CE0107960E949C0E882357
:1020F000D1F09F8188852A853B85232B31F08F3F46
:1021000031F481E09F3F19F403C081E001C080E019
:1021100080FD47C04F81588569857A858B859C8570
:102120000E949D0B3EC086E0FE013796DE011196AF
:1021300001900D928A95E1F7FF81E8856A857B859C
:102140006115710531F0EF3F31F481E0FF3F19F483
:1021500003C081E001C080E080FD23C020911B020C
:1021600030E0C90101968770992740911A0250E02A
:1021700084179507F1F1F983EA837D836C8396E0F8
:10218000929FD001939FB00D1124A45EBD4FFE011C
:10219000319601900D929A95E1F780931B020E946F
:1021A000010E16E080911A0290911B02891771F1BD
:1021B000189FC0011124845E9D4F0E949C0E8823AD
:1021C00029F1E0911A021E9FF0011124E45EFD4FF7
:1021D0004081518162817381848195810E949D0B30
:1021E00080911A0290E001968770992780931A02D5
:1021F000D9CF0E945E0B10921B0210921A02ECE4DF
:10220000F2E086E0DF011D928A95E9F72C960FB681
:10221000F894DEBF0FBECDBFDF91CF911F9108951F
:1022200080915202859585958595089580915202F9
:102230008770089590915202977081E009F480E0D0
:1022400008959091CD0292FB222720F9281751F092
:1022500080FB92F99093CD028091CC029091CD02B7
:102260000C942E1208958091CD0282FB882780F96C
:1022700091E089270C94211181E00C94211180E0D8
:102280000C94211180917602089590917602892B09
:1022900080937602089580959091760289238093A9
:1022A000760208958093760208951092760208953A
:1022B00090917502892B8093750208958095909175
:1022C000750289238093750208951092750208950E
:1022D00090917402892B8093740208958095909157
:1022E00074028923809374020895109274020895F1
:1022F00080915302089508950C947B110C947C11E5
:102300009091CD0292FD08C090915302981721F050
:10231000809353020C947E11089580915302882378
:1023200029F01092530280E00C947E110895E09100
:102330000001F0910101809176028083E09100011B
:10234000F0910101908180917502892B8083E09149
:102350000001F0910101908180917402892B8083AA
:1023600080915302882381F0E0910001F0910101F6
:102370009081892B808380910001909101010E94BE
:10238000F01B81110E948D1180910001909101013B
:102390000C949C1B0C947B119091CD0292FD10C06B
:1023A00098E0899F90011124262B209352020E94CD
:1023B0001F0C809152028595859585950C94CA11C4
:1023C0000C941F0C1092520280E00C94CA112091C0
:1023D00052028095822380935202982F977041F485
:1023E00030E0482F082E000C550B2417350721F438
:1023F0009091CD0292FF07C08595859585950E94A5
:10240000400C0C94E21108956FEF7FEF80E090E0B4
:102410000C94B82480E090E00E94942421E0893E4E
:102420009E4F09F020E0822F089582E090E00C9406
:102430008C2483E090E00C948C24CF9384E090E093
:102440000E948C24C82F82E290E00E948C242C2FC2
:1024500030E0A901582BCA01CF910895CF93C92F1D
:10246000682F84E090E00E949A246C2F82E290E032
:10247000CF910C949A24AB01BC018FE090E00C94B6
:10248000AC24AB01BC0183E190E00C94AC2460E08F
:1024900070E0CB010C94411260E070E0CB010E942F
:1024A0003B120C94471269EE7EEF80E090E00E94B0
:1024B000B82460E082E090E00E949A2460E083E02B
:1024C00090E00E949A241092160210921702109225
:1024D00018021092190260E084E090E00E949A24B1
:1024E00060E082E290E00E949A2460E085E090E063
:1024F0000E949A2460E086E090E00E949A246FEFA8
:1025000087E090E00E949A2440E050E0BA0188E021
:1025100090E00E94AC2460E08DE090E00E949A245C
:1025200040E050E0BA0188E190E00E94AC2460E015
:1025300087E190E00E949A2440E050E0BA018CE1EB
:1025400090E00E94AC2460E070E080E290E00E94A5
:10255000B82440E050E0BA0188E190E00E94AC2449
:102560000C944C120C945312682F8EE090E00C9453
:102570009A240E94411D609388027093890280937F
:102580008A0290938B0260938402709385028093F9
:10259000860290938702089585B7806885BF85B7C6
:1025A000806885BF089581E008950C94D312089542
:1025B0000C94D7120C94D7120C94DA120C94D712F4
:1025C0000C94DE120C94D7120E94CC1280ED95E18F
:1025D0000E94931D0E94E2120C94E0120E94D812F5
:1025E0000C94D7120E942C1D0E944103ECECF2E0E7
:1025F0008081806880838091CC029091CD020E947E
:102600002E120C94DC126F927F928F929F92AF9257
:10261000BF92CF92DF92EF92FF920F931F93CF93CF
:10262000DF93CDB7DEB72A970FB6F894DEBF0FBEA3
:10263000CDBF0E94B00381110E94B91238E7832EEA
:1026400032E0932E00E010E0C02E802F0E9465043F
:102650005C01F401619071904F0168267926611444
:102660007104B1F40F5F1F4F0630110569F78FEF4A
:1026700089838A831B820E94351D8160782F9D8308
:102680008C8349815A816B818D810E9449073AC0B0
:1026900080918C0281FD0E946E04D12CEE24E39483
:1026A000F12CC3018E219F21892B29F10E94D51283
:1026B0008823A9F0DE82CF82AE20BF2081E0AB2844
:1026C00009F480E088870E94351D8160782F9A8701
:1026D00089874E815F8168858A850E944907000F3E
:1026E000111FF801E858FD4F80819181E826F926F5
:1026F000F182E08207C0D394EE0CFF1CFEE0DF12F3
:10270000D0CFB0CF0E948B170E948D1B9091770283
:102710008917D1F00E948D1B809377022A960FB6FD
:10272000F894DEBF0FBECDBFDF91CF911F910F9107
:10273000FF90EF90DF90CF90BF90AF909F908F90E1
:102740007F906F900C9440072A960FB6F894DEBFE6
:102750000FBECDBFDF91CF911F910F91FF90EF90F2
:10276000DF90CF90BF90AF909F908F907F906F90B1
:10277000089580E090E00895089524E5829FC001C7
:102780001124FC012EE0729FE00DF11D1124E60FD3
:10279000F11DEE0FFF1FE450FF4F859194910895B6
:1027A000880F991FFC01EC55FC4F85919491089579
:1027B000CF93DF930E94F914EC01811520E5920775
:1027C00008F03FC0811540E4940708F0D2C0883E6D
:1027D000910500F5803E910508F002C1883A910507
:1027E00070F4853A910508F0A6C08130910509F48E
:1027F0009FC008F4F2C0049708F0F2C0EEC08F3B0F
:10280000910508F4A1C0803C910508F4E6C0805C05
:102810009109A5C0811550E2950760F4C11581E0CA
:10282000D80708F0DDC0CD3ED10508F4D6C0CE01F2
:102830009065D7C0811520E3920708F093C09F7080
:102840008EC0811545E5940708F046C0811554E512
:10285000950708F0A6C0C11582E5D80718F5C1157F
:1028600021E5D20708F088C0CE01F4E0969587955F
:10287000FA95E1F7282F23703C2F337081E090E028
:1028800002C0880F991F3A95E2F79C68922B2C2F73
:102890002F702695269540E2249F90011124822BCB
:1028A000932B9FC09E01237033279C2F969596955E
:1028B000C115D34508F065C041E050E002C0440FA7
:1028C000551F2A95E2F780E2989F90011124CA01D2
:1028D000822B932B9C6885C0811559E5950798F448
:1028E000C11588E5D80708F061C0C11526E5D207F3
:1028F00008F073C08C2F0E948D158F7190E0982F77
:10290000882790626EC081154AE5940708F453C089
:1029100090568115904208F060C08D2F8F710E94F3
:102920008D159E01332730628F71A901582B53C03A
:1029300081E090E056C0855AC82FD0E0CE58DE4FD7
:10294000888190E090644DC0885AC82FD0E0CC0FA9
:10295000DD1FCC5BDE4F88819981946442C00E9468
:10296000D0133FC09927D3FF02C0986C3AC0906C37
:1029700038C09F70906A35C09C2F8827816F906AFD
:1029800030C041E050E002C0440F551F2A95E2F7E5
:1029900080E2989F90011124CA01822B932B9A68A0
:1029A00020C0982F8827846F906A1BC09C2F88278F
:1029B000806F906A16C08F700E948D159E0194E002
:1029C000369527959A95E1F72F7030E0322F222720
:1029D0003069A901482BCA0104C080E090E001C021
:1029E000CE01DF91CF9108950E94BD130E94D813AC
:1029F00008958238910569F1B0F48133910509F4A5
:102A00006DC048F48932910509F463C08A3291059A
:102A100009F469C008958533910509F455C08933D7
:102A20009105B9F00895833E910569F138F4803E2F
:102A30009105B1F0823E910509F10895863E910518
:102A4000A9F1873E9105B9F1843E910509F064C072
:102A500023C02091CC0220FD4FC021FD4DC0089520
:102A60008091CC0280FD44C08091CD0280FF44C0A3
:102A70008091CC0284FD42C083EE4DC08091CC0297
:102A800082FF38C0F5CF8091CC0282FD33C08091A7
:102A9000CD0280FD31C0ECCF8091CD0281FF32C0EC
:102AA0008091CC0284FD2AC087EE35C08091CC0293
:102AB00083FF26C0F5CF8091CC0283FD21C0809199
:102AC000CD0281FD1FC0ECCF8091CC0285FD1CC0E2
:102AD0001DC08091CC0285FD19C016C08091CC022A
:102AE00086FD16C017C08091CC0286FD13C010C0B1
:102AF00089E311C082EE0FC080EE0DC080E00BC0F4
:102B000086EE09C084EE07C089E205C085E303C0F4
:102B10008AE201C081E390E008959091CC0292FF97
:102B20000DC0282F2871283019F4877F846006C0D3
:102B3000282F2471243011F48B7F886093FF0DC0FF
:102B4000282F2871283119F4877E846106C0282F28
:102B50002471243111F48B7E88612091CD0220FFF5
:102B60000DC0382F3871383019F4877F816006C066
:102B7000382F3171313011F48E7F886021FF0DC004
:102B8000282F2871283119F4877E816106C0282FEB
:102B90002171213111F48E7E886194FD877E089524
:102BA00080E008950C9404120E94B0038FE39CE926
:102BB0000197F1F700C000000E94B00380E00E947E
:102BC000650480FF04C00E94D2150C94821D0895F4
:102BD0000C94D4150E940A12811102C00E94B212F4
:102BE0000E94151280938C020E941D129093CD02B8
:102BF0008093CC020E94E8150E941912682F70E0A1
:102C000080E090E00E94BF0B60911202709113026D
:102C100080911402909115020C94F70B0E94AE1C47
:102C20000E94091F0E94221F0E94341F0E94EE1260
:102C3000FBCF8091950280FF0BC06091060185E07B
:102C4000689FB001112475956795759567952BC0A0
:102C500081FF09C06091060185E0689FB0011124E1
:102C60007595679520C082FF07C06091060185E0D9
:102C7000689FB001112417C0909194029923D1F05C
:102C800060910501961788F72091060185E0289F3D
:102C900090011124929FA001939F500D112470E088
:102CA000CA010E945E246038710540F46115710507
:102CB00019F406C065E070E0862F08958FE7089547
:102CC00081E008958091950280FF08C06091030122
:102CD00070E0759567957595679521C081FF06C071
:102CE0006091030170E07595679519C082FF04C07B
:102CF0006091030170E010C090919302992399F0C4
:102D0000609102019617A0F780910301899FC0018D
:102D1000112470E00E945E246038710540F4611552
:102D2000710519F406C061E070E0862F08958FE701
:102D3000089581E008958D3E21F40E941916819531
:102D400004C08E3E29F40E941916809399020895BA
:102D50008F3E21F40E941916819504C0803F29F40A
:102D60000E941916809398020895893F19F40E94D1
:102D7000621605C08A3F31F40E94621681958093E5
:102D80009A0208958B3F21F40E946216819504C037
:102D90008C3F29F40E94621680939B0208959FE065
:102DA000980F983078F421E030E0A90102C0440F78
:102DB000551F9A95E2F7CA0190919702892B80934B
:102DC000970208958D3F21F48091950281600BC098
:102DD0008E3F21F480919502826005C08F3F29F4D7
:102DE0008091950284608093950208958D3E39F418
:102DF0009091990297FF35C01092990259C08E3E6A
:102E000029F4909199021916BCF32BC09091980265
:102E10008F3E29F497FF25C01092980249C0803F49
:102E200019F41916CCF31DC090919A02893F29F428
:102E30001916BCF410929A023BC08A3F19F497FF0E
:102E400010C0F8CF8B3F39F490919B0297FF09C0D7
:102E500010929B022DC08C3F21F490919B02191679
:102E6000BCF39FE0980F983080F421E030E0A90196
:102E700002C0440F551F9A95E2F7CA0180959091C0
:102E8000970289238093970213C08D3F21F480918C
:102E900095028E7F0BC08E3F21F4809195028D7F2D
:102EA00005C08F3F29F4809195028B7F8093950216
:102EB00080919802811106C080919902811102C00F
:102EC0001092940280919A02811106C080919B0217
:102ED000811102C01092930208950E94351D209125
:102EE0009802211104C020919902222321F090938D
:102EF00092028093910220919A02211104C02091A4
:102F00009B02222321F09093900280938F0286E906
:102F100092E00C94B61BEF92FF920F931F93CF9306
:102F2000DF9300D000D000D0CDB7DEB786E0E6E971
:102F3000F2E0DE01119601900D928A95E1F7E090A2
:102F40009802F090990200919A0210919B021092BF
:102F500098021092990210929A0210929B02E1102C
:102F600003C0FF2009F45DC080919102909192020C
:102F70000E944D1DAC0190919402992339F020914B
:102F8000070130E02417350758F04BC020918E021E
:102F90008AE0289F900111242417350718F041C0BA
:102FA0009F3F19F09F5F90939402EE2061F00E9482
:102FB00019161E1414F09FEF01C091E0989F902DF8
:102FC000112490939802FF2061F00E9419161F149B
:102FD00014F09FEF01C091E0989F902D11249093E1
:102FE0009902309198023323E1F020919902222333
:102FF000C1F045EB3403C0011124992319F09093DB
:10300000980203C081E08093980235EB2303C0014E
:103010001124992319F09093990203C081E08093C1
:103020009902011103C0112309F45DC080918F0240
:10303000909190020E944D1DAC01909193029923B2
:1030400039F02091040130E02417350758F04BC0C7
:1030500020918D028AE0289F9001112424173507C2
:1030600018F041C09F3F19F09F5F90939302002397
:1030700061F00E946216101614F09FEF01C091E0FB
:10308000989F902D112490939A02112361F00E9431
:103090006216111614F09FEF01C091E0989F902DD9
:1030A000112490939B0230919A023323E1F02091F6
:1030B0009B022223C1F045EB3403C0011124992364
:1030C00019F090939A0203C081E080939A0235EB45
:1030D0002303C0011124992319F090939B0203C08C
:1030E00081E080939B028091980281110BC08091B6
:1030F0009902811107C080919A02811103C08091C9
:103100009B0281110E946D17EB82FC820D831E834E
:1031100086E0FE013196A6E9B2E001900D928A9513
:10312000E1F726960FB6F894DEBF0FBECDBFDF9154
:10313000CF911F910F91FF90EF900895E6E9F2E093
:1031400086E0DF011D928A95E9F7109294021092B1
:103150009302109295020895CF93DF9397FF0DC0CD
:10316000FB012281222349F0EC010E94D718CE01F5
:103170009F770E942E190E94101981E0DF91CF9154
:1031800008958CE090E00E948C2490E0A0E0B0E0F4
:103190008093CE029093CF02A093D002B093D1023D
:1031A00008956091CE028CE090E00C949A240E94E5
:1031B000991B869581708093D3029091CE029130B5
:1031C00029F4882319F089E30E94C2080E94421161
:1031D0008093D2020E9455118091CE02813071F00D
:1031E00048F0823081F08430A1F486EE0E94C2085B
:1031F00088E10DC082EE0E9499070BC088E193E040
:103200000E94F90506C082EE0E94990787E50E9498
:10321000C2088FE39CE90197F1F700C00000089510
:103220008091CE02813039F078F0823069F08430BC
:1032300089F488E20DC08CE20E94C2088091D3021A
:10324000882341F089E304C082EE0E94430802C053
:103250000E94C2088091D2020C9452110F931F93C6
:10326000CF93DF938C01CCE0D0E0C8010C2E02C0DC
:10327000969587950A94E2F78F700E942E072497FF
:10328000CC3F8FEFD80789F7DF91CF911F910F9136
:1032900008950F931F93CF93DF93EC018B01FB01F4
:1032A0008281882361F00E944211CE01825E9C459A
:1032B0008530910520F48093CE020E94D118B80188
:1032C000CE01DF91CF911F910F910C94AC180F9309
:1032D0001F93CF93DF93C42FD22FFC0182818823C9
:1032E000C9F040939E020E94351D90939D028093E9
:1032F0009C0280E28C0F883008F057C0C77081E0D4
:1033000001C0880FCA95EAF7DF91CF911F910F9105
:103310000C94CB0880919E02481330C080919C028F
:1033200090919D020E944D1D883C910538F510E258
:103330001D0FCD17B9F080E28C0F883040F4C770B4
:1033400081E001C0880FCA95EAF70E94D2081830C0
:1033500028F581E09D2F977001C0880F9A95EAF7B4
:103360000E94CB08802F0E94C2081830F0F4D7705A
:1033700081E001C0880FDA95EAF70AC080E28C0F7D
:10338000883098F4C77081E001C0880FCA95EAF7C9
:10339000DF91CF911F910F910C94D208802FDF9174
:1033A000CF911F910F910C94C208DF91CF911F9183
:1033B0000F9108950F939C01CB01243F4CE53407F6
:1033C00031F188F4293DFCE53F07D9F02A3D4CE571
:1033D000340779F1283D3C45A9F506E221EE41EE9E
:1033E00068ED7CE52BC0263FFCE53F07E1F0A8F047
:1033F000273F3C4539F507E225EE46EE67EF7CE5D1
:103400001DC007E225EE45EE69ED7CE517C006E23A
:1034100021EE40EE64EF7CE511C007E225EE44EEBC
:1034200065EF7CE50BC006E221EE42EE66EF7CE53F
:1034300005C008E221E045EE6AED7CE50E946719CF
:1034400080E008C0FC018281882319F010929E025E
:1034500001C081E00F910895CF93DF93EC01FB0150
:103460008281882309F41FC1C230FCE5DF0708F41C
:103470001BC1C6319CE5D90738F09E012B5F3C4546
:103480002930310508F010C10E941D129093CD0221
:103490008093CC02C031ECE5DE0709F4C3C008F02C
:1034A00041C0C8308CE5D80709F49AC0F0F4C430A4
:1034B000ECE5DE0709F487C068F4C2308CE5D80774
:1034C00009F477C0C330DC4509F0E3C08091CC0239
:1034D000826076C0C630ECE5DE0709F46EC008F005
:1034E0007BC08091CC0288606BC0CC308CE5D80763
:1034F00009F485C068F4CA30ECE5DE0709F474C04D
:1035000008F079C00E945E0B8091CC02806858C0A0
:10351000CE308CE5D80709F476C008F07FC08091E2
:10352000CC028BC0CC3FECE5DE0709F44FC018F5A8
:10353000C3318CE5D80709F47DC078F4C131ECE5DE
:10354000DE0709F473C0C231DC4509F0A2C00E9455
:103550005E0B8091CC028F7733C0C5318CE5D807E4
:1035600009F472C008F486C0CB3FDC4509F091C075
:103570008091CD023EC0C115FDE5DF0709F45FC0B3
:1035800058F4CE3F9CE5D90709F444C008F43FC085
:103590008091CD0282602DC0C230FDE5DF0709F4C5
:1035A00075C008F45DC0C330DD4509F072C080E02D
:1035B0006EC08091CC02816003C08091CC0280619A
:1035C0008093CC0266C08091CC0211C08091CD0264
:1035D00082608093CD025DC08091CC028062F0CF8A
:1035E0008091CC028064ECCF8091CC0288608460B2
:1035F000E7CF8160EECF8091CC028E7FE1CF8091CA
:10360000CC028D7FDDCF8091CC02877FD9CF809196
:10361000CD0218C08091CD028D7FDBCF8091CC028E
:103620008F7ECECF8091CC028F7DCACF8091CC028D
:103630008F7BC6CF8091CC02877F8B7FC1CF80915B
:10364000CD028D7F8E7FC5CF8091CC0282FB222759
:1036500020F991E0922790FB82F990FB83F9B0CF9B
:103660008091CD02982F909591708E7F892B90FB41
:1036700081F9AFCF0E945E0B8091CC0287FB22279D
:1036800020F991E0922790FB87F99ACF81E00E9480
:10369000B4128091CC029091CD020E942E120E9411
:1036A0005E0B80E001C081E0DF91CF910895CF9360
:1036B000DF9386319C4541F5EB010E944211982F22
:1036C0008A812091000130910101882379F09A7A52
:1036D00081E009F480E080939F02911102C069E2C9
:1036E00001C065E3C9010E94861C0AC080919F0247
:1036F000811102C069E201C065E3C9010E94911C09
:103700000E94971180E001C081E0DF91CF91089580
:103710009093A5028093A4020895E091A402F091F1
:10372000A502309721F00190F081E02D099480E00E
:1037300008950E948D1B0895E091A402F091A502C6
:10374000309799F020911201222359F02091CC0258
:1037500027FF07C0DC012C9111962C93119725E0CF
:103760002C930280F381E02D09940895E091A40246
:10377000F091A502309739F022E0DC012C9304800F
:10378000F581E02D099408952091A2023091A302C1
:103790002817390771F09093A3028093A202E09159
:1037A000A402F091A502309721F00680F781E02D68
:1037B000099408952091A0023091A1022817390799
:1037C00071F09093A1028093A002E091A402F09185
:1037D000A502309721F00084F185E02D0994089529
:1037E000FC01329680911201882331F08091CC0245
:1037F00087FF02C09EE101C096E080E0915028F072
:1038000021912223D9F38F5FF9CF0895662351F1D7
:10381000209112012223E9F02091CC0227FF19C048
:10382000462F4695469546954E31E0F4677021E067
:1038300030E002C0220F331F6A95E2F7FC01E40F6B
:10384000F11D828190E02823392381E0232B69F444
:1038500009C0FC01329608962191621729F0E817F9
:10386000F907D1F780E0089581E008959C01FC01FB
:1038700032969FEF80E04191461789F09F3F19F4FF
:10388000411101C0982F8F5F8630A9F79F3F39F013
:10389000F901E90FF11D97FDFA95628308950895E6
:1038A0009C012A5F3F4FFC014281461301C01282F6
:1038B000019682179307B9F70895262F2695269526
:1038C00026952E3168F4FC01E20FF11D677021E0AE
:1038D00030E001C0220F6A95EAF78281282B22830B
:1038E0000895262F2695269526952E3170F4FC01F5
:1038F000E20FF11D677021E030E001C0220F6A95F0
:10390000EAF72095828128232283089520911201CD
:10391000222329F02091CC0227FD0C945D1C0C94ED
:10392000361C20911201222329F02091CC0227FD80
:103930000C94711C0C94501C20911201FC013296C5
:10394000222331F08091CC0287FF02C08EE101C0BA
:1039500086E0DF011D928A95E9F70895089508959C
:103960000C94AF1CCF930E9457030E94B0030E9497
:10397000B01CC0E08C2F0E946504892B29F4CF5F16
:10398000C630C1F780E001C081E0CF9108950C946A
:10399000AF1C0C94C71C8091DC02843049F10E945A
:1039A000C91C80E00E9440071092A60220E488E132
:1039B00090E00FB6F894A895809360000FBE209316
:1039C000600083B7817F846083BF83B7816083BFDA
:1039D0007894889583B78E7F83BF0FB6F894A895A7
:1039E00080916000886180936000109260000FBE3B
:1039F00008950C94AF1C0E945E0B0E948D1B0E94C8
:103A000040070C94F91C1F920F920FB60F921124CD
:103A10008F939F93AF93BF938091A602811113C0A0
:103A20008091D4029091D502A091D602B091D70294
:103A30004196A11DB11D8093D4029093D502A0930D
:103A4000D602B093D702BF91AF919F918F910F9003
:103A50000FBE0F901F90189582E084BD93E095BD36
:103A60009AEF97BD80936E0008952FB7F8948091D8
:103A7000D4029091D502A091D602B091D7022FBF67
:103A800008952FB7F8946091D4027091D502809177
:103A9000D6029091D7022FBF08959C014FB7F8949A
:103AA0008091D4029091D502A091D602B091D70214
:103AB0004FBF821B930B089578941F920F920FB6FD
:103AC0000F9211248F939F93AF93BF938091D40251
:103AD0009091D502A091D602B091D7020196A11D76
:103AE000B11D8093D4029093D502A093D602B093D7
:103AF000D702BF91AF919F918F910F900FBE0F9002
:103B00001F90189587E797E7909301088093000826
:103B10009AE088E10FB6F894A895809360000FBEF4
:103B200090936000FFCF9093770180937601089582
:103B30008091CA0208959091DC02943031F580930F
:103B4000A7027093A9026093A80282E08093E90023
:103B50008FEF9091E800815095FD06C095ED9A9504
:103B6000F1F700008111F5CF8091E80085FF0DC0CD
:103B700040E050E063E070E087EA92E00E94C01FFE
:103B80008091E8008E778093E8000895BC0184E07E
:103B90000C949B1DBC0183E00C949B1D22E02093A0
:103BA000E9002FEF3091E800215035FD06C035EDDA
:103BB0003A95F1F700002111F5CF2091E80025FF9B
:103BC0000BC040E050E066E070E00E94C01F8091B2
:103BD000E8008E778093E8000895CF93DF932091DB
:103BE0001201222339F02091CC0227FF03C060E2AA
:103BF00022E002C068E021E02093E9002FEF30913D
:103C0000E800215035FD06C035ED3A95F1F700008A
:103C10002111F5CF2091E80025FF1DC0EC01809116
:103C20001201811105C040E050E068E070E003C07F
:103C300070E040E050E0CE010E94C01F8091E8009B
:103C40008E778093E80080E2FE01AAEAB2E001905C
:103C50000D928A95E1F7DF91CF9108958091DB0273
:103C6000811109C00E9451210E94AE218091E20081
:103C700084608093E20008951092DB020895089515
:103C80000895089542E061EC81E00E94CA2042E27A
:103C900061EC82E00C94CA208091DE02833009F44A
:103CA00060C030F4813071F0823009F499C0089519
:103CB0008A3009F485C08B3009F46BC0893009F073
:103CC000A7C020C08091DD02813A09F0A1C0809197
:103CD000E800877F8093E8008091E1029091E20202
:103CE000892B21F460E28AEA92E003C060E080E080
:103CF00090E070E00E940B208091E8008B77809329
:103D0000E80008958091DD02813209F081C0809140
:103D1000E1029091E202029708F07AC08091E800F7
:103D2000877F8093E8008091E80082FD05C0809144
:103D3000DC028111F8CF6CC02091F3008091F20079
:103D400090E0922B029729F48091F1008B7F8130D3
:103D500021F48091F1008093CA028091E8008B7772
:103D600053C08091DD02813A09F052C08091E10296
:103D70009091E202892B09F04BC08091E800877F87
:103D80008093E8008091E80080FFFCCF80911201D1
:103D900036C08091DD028132D9F58091E1029091A7
:103DA000E202892BA9F58091E800877F8093E800E3
:103DB0000E94FF208091DF02809312010C945E0B21
:103DC0008091DD02813221F58091E800877F809328
:103DD000E8000E94FF208091E0028093CB020895CA
:103DE0008091DD02813AA1F48091E800877F809381
:103DF000E8008091E80080FFFCCF8091CB028093A7
:103E0000F1008091E8008E778093E8000C94FF2009
:103E1000089584B7877F84BF0FB6F894A8958091E2
:103E20006000886180936000109260000FBE90E097
:103E300080E80FB6F89480936100909361000FBE04
:103E40000C94E4120E9451210E94AE21E2EEF0E0B7
:103E500080818460808378940E9443240E94F212BF
:103E600088E091E00C94881B8091DC028530A9F4F5
:103E70008091DC02853079F40E94CB1C8091DA02BB
:103E80008823B1F30E94B21C882391F30E94AA1FD9
:103E90000E945E0BEDCF0E94FB1C0C9403130C944C
:103EA000511F292F332723303105C9F060F4213009
:103EB000310581F02230310509F044C08BE390E0F8
:103EC00020ED33E043C021323105E1F022323105EB
:103ED00049F138C082E190E02BE034E037C0992707
:103EE0008130910549F028F0029761F5E4EAF3E0AA
:103EF00005C0ECECF3E002C0E8EBF3E0849190E065
:103F00009F0124C06115710541F061307105D1F444
:103F100089E090E02BEF33E019C089E090E022EED9
:103F200033E014C06115710541F06130710551F441
:103F300086EB90E02DE134E009C080E490E023EDD1
:103F400034E004C080E090E020E030E0FA0131830A
:103F50002083089580E189BD82E189BD09B400FE16
:103F6000FDCF8091D8008F7D8093D8008091E000B4
:103F700082608093E0008091E00081FDFCCF089595
:103F8000CF92DF92EF92FF920F931F93CF93DF9325
:103F9000EC018B017A010E941E21811133C0E114D2
:103FA000F10439F0F70180819181081B190BC80FCA
:103FB000D91FC12CD12C0115110519F18091E800F0
:103FC00085FD16C08091E8008E778093E800E114AB
:103FD000F10449F0F70180819181C80ED91ED18288
:103FE000C08285E00FC00E941E21882321F30AC0F1
:103FF00089918093F10001501109FFEFCF1ADF0A78
:10400000DACF80E0DF91CF911F910F91FF90EF9079
:10401000DF90CF9008952091E3023091E4022617BB
:10402000370748F06115710539F42091E8002E77C3
:104030002093E80001C0B901FC0120E06115710581
:1040400079F18091DC028823F1F18530F1F18091E2
:10405000E80083FD3CC08091E80082FD2EC0809185
:10406000E80080FFEBCF2091F3008091F20090E018
:10407000922B6115710551F08830910538F421912A
:104080002093F100615071090196F3CF21E0089768
:1040900009F020E08091E8008E778093E800CECF91
:1040A0002111CFCF0AC08091DC02882361F08530D6
:1040B00061F08091E80083FD0AC08091E80082FFF2
:1040C000F2CF80E0089582E0089583E0089581E0D2
:1040D00008952091E3023091E4022617370748F053
:1040E0006115710539F42091E8002E772093E800DE
:1040F00001C0B901FC0120E06115710591F18091C9
:10410000DC02882309F440C0853009F43FC0809167
:10411000E80083FD3DC08091E80082FD2FC08091C2
:10412000E80080FFE9CF2091F3008091F20090E059
:10413000922B6115710559F08830910540F4249156
:104140002093F1003196615071090196F2CF21E080
:10415000089709F020E08091E8008E778093E800CE
:10416000CBCF2111CCCF0AC08091DC02882361F033
:10417000853061F08091E80083FD0AC08091E800FD
:1041800082FFF2CF80E0089582E0089583E00895F1
:1041900081E00895982F973068F59093E90098177B
:1041A00039F07091EC002091ED005091F00003C0C7
:1041B000242F762F50E021FD02C09F5FECCF30917D
:1041C000EB003E7F3093EB003091ED003D7F30936C
:1041D000ED003091EB0031603093EB007093EC0018
:1041E0002093ED005093F0002091EE0027FDE5CFE5
:1041F00080E008958F708093E90081E008958091B8
:10420000DD0287FF11C08091E80082FD05C080912A
:10421000DC028111F8CF11C08091E8008B770BC0D0
:104220008091DC02882349F08091E80080FFF8CF7C
:104230008091E8008E778093E80008952091E40053
:104240003091E50095E64091EC00842F817040FFAD
:1042500023C08091E80080FD1DC08091DC0288238E
:1042600099F0853099F08091EB0085FD11C0409167
:10427000E4005091E5002417350729F3915011F01F
:104280009A01E1CF84E0089582E0089583E00895E3
:1042900081E0089580E008954091E80042FFDDCF7D
:1042A00008950E94BF210E94C721E0EEF0E08081C6
:1042B00081608083E8EDF0E080818F77808319BC96
:1042C000A7EDB0E08C918E7F8C9380818F7E808370
:1042D0001092DB0208950F931F93CF93DF930E94F8
:1042E000BF210E94C721C8EDD0E088818F778883E5
:1042F00088818068888388818F7D888319BC10922B
:10430000DC021092D8021092DA021092D90200EE6A
:1043100010E0F80180818B7F8083888181608883B1
:1043200042E060E080E00E94CA20E1EEF0E080819F
:104330008E7F8083E2EEF0E08081816080838081E7
:1043400088608083F80180818E7F8083888180618E
:104350008883DF91CF911F910F910895E8EDF0E0F0
:1043600080818F7E8083E7EDF0E0808181608083B3
:1043700084E082BF81E08093DB020C946B21E8ED46
:10438000F0E080818E7F80831092E2000895109289
:10439000DA001092E10008951F920F920FB60F926B
:1043A00011242F933F934F935F936F937F938F933A
:1043B0009F93AF93BF93EF93FF938091E10082FFB0
:1043C0000BC08091E20082FF07C08091E1008B7FEB
:1043D0008093E1000E9442248091DA0080FF1FC098
:1043E0008091D80080FF1BC08091DA008E7F80937F
:1043F000DA008091D90080FF0DC080E189BD82E1A3
:1044000089BD09B400FEFDCF81E08093DC020E94EB
:104410002E1E05C019BC1092DC020E943C1E809129
:10442000E10080FF19C08091E20080FF15C08091FB
:10443000E2008E7F8093E2008091E20080618093B1
:10444000E2008091D80080628093D80019BC85E09A
:104450008093DC020E94401E8091E10084FF30C006
:104460008091E20084FF2CC080E189BD82E189BD9A
:1044700009B400FEFDCF8091D8008F7D8093D800D5
:104480008091E1008F7E8093E1008091E2008F7E39
:104490008093E2008091E20081608093E20080914D
:1044A000D802882311F084E007C08091E30087FDE3
:1044B00002C081E001C083E08093DC020E94411EC3
:1044C0008091E10083FF29C08091E20083FF25C035
:1044D0008091E100877F8093E10082E08093DC029D
:1044E0001092D8028091E1008E7F8093E10080914C
:1044F000E2008E7F8093E2008091E20080618093F1
:10450000E20042E060E080E00E94CA208091F0007A
:1045100088608093F0000E943F1EFF91EF91BF9151
:10452000AF919F918F917F916F915F914F913F914B
:104530002F910F900FBE0F901F9018951F920F9202
:104540000FB60F9211242F933F934F935F936F9366
:104550007F938F939F93AF93BF93CF93DF93EF930B
:10456000FF93C091E900CF708091EC00D82FD170FB
:1045700080FDD0E81092E9008091F000877F809361
:10458000F00078940E94E2221092E9008091F000FD
:1045900088608093F000CD2BCF70C093E900FF912D
:1045A000EF91DF91CF91BF91AF919F918F917F91CB
:1045B0006F915F914F913F912F910F900FBE0F9090
:1045C0001F9018951F93CF93DF93CDB7DEB7AA97AF
:1045D0000FB6F894DEBF0FBECDBFEDEDF2E08091D7
:1045E000F100819322E0E53EF207C9F70E944C1EDC
:1045F0008091E80083FF2EC18091DD029091DE0260
:10460000492F50E04A30510508F024C1FA01EC5816
:10461000FF4F0C947224803821F0823809F01AC1BF
:1046200008C08091D9029091DA02992389F08260C2
:104630000FC08091E1028F70873008F00BC180932A
:10464000E9008091EB0085FB882780F91092E90052
:104650009091E800977F9093E8008093F10010928A
:10466000F100D1C0282F2D7F09F0F4C0882319F064
:10467000823061F0EFC08091DF02813009F0EAC042
:10468000933009F080E08093DA022EC08091DF023F
:1046900081112AC08091E1028F702FEF280F263000
:1046A00008F0D8C08093E9002091EB0020FF1CC0E7
:1046B000933021F48091EB00806214C09091EB0064
:1046C00090619093EB0021E030E0A90102C0440F1B
:1046D000551F8A95E2F74093EA001092EA00809114
:1046E000EB0088608093EB001092E9008091E80075
:1046F000877F8093E8000E94FF20ACC08111AAC090
:104700001091DF021F778091E3008078812B8093E6
:10471000E3008091E800877F8093E8000E94FF20FB
:104720008091E80080FFFCCF8091E3008068809357
:10473000E300111102C082E001C083E08093DC023B
:1047400089C08058823008F085C08091DF02909146
:10475000E0028C3D53E0950779F583E08A838AE295
:1047600089834FB7F894DE01139620E03EE051E2D2
:10477000E32FF0E050935700E49120FF03C0E2954F
:10478000EF703F5FEF708E2F90E0EA3010F0C79629
:1047900001C0C0968D939D932F5F243149F74FBF81
:1047A0008091E800877F8093E8006AE270E0CE01A4
:1047B00001960E940B2016C06091E1027091E20206
:1047C000AE014F5F5F4F0E944F1FBC01892B09F460
:1047D00041C09091E800977F9093E80089819A8189
:1047E0000E9469208091E8008B778093E80032C0B6
:1047F000803881F58091E800877F8093E800809180
:10480000D8028093F1008091E8008E7772CF8111F9
:1048100021C08091DF029091E00299270297D4F4A1
:104820008091E800877F8093E8008091DF02809389
:10483000D8020E94FF208091D802811106C0809189
:10484000E30087FD02C081E001C084E08093DC02C8
:104850000E94421E8091E80083FF0AC08091E80018
:10486000877F8093E8008091EB0080628093EB006B
:10487000AA960FB6F894DEBF0FBECDBFDF91CF91E1
:104880001F9108950895CF938091DC028823A1F0B1
:10489000C091E900CF709091EC00892F817090FD5C
:1048A00080E8C82B1092E9008091E80083FD0E9407
:1048B000E222CF70C093E900CF91089597FB072EB5
:1048C00016F4009407D077FD09D00E94782407FCE5
:1048D00005D03EF4909581959F4F08957095619510
:1048E0007F4F0895EE0FFF1F0590F491E02D09947E
:1048F000AA1BBB1B51E107C0AA1FBB1FA617B70706
:1049000010F0A61BB70B881F991F5A95A9F7809521
:104910009095BC01CD010895F999FECF92BD81BD5E
:10492000F89A992780B50895A8E1B0E042E050E0F8
:104930000C94C024262FF999FECF92BD81BDF89A20
:10494000019700B4021639F01FBA20BD0FB6F894D3
:10495000FA9AF99A0FBE08950396272F0E949B2476
:104960000E949A24252F0E949B24242F0C949B2480
:104970000196272F0E949B240C949A24DC01CB01E2
:10498000FC01F999FECF06C0F2BDE1BDF89A31965F
:1049900000B40D9241505040B8F70895F894FFCFFD
:1049A00054022808643C0714981DED1DCE1DCA1D35
:1049B000C61D01E200E900EA00B500B600B700CD6F
:1049C000008301CC008A0192019401210223022478
:1049D000022502260227022A02B300B4006F0070EB
:1049E00000818283E200E900EA00B500B600B7006A
:1049F000CD008301CC008A0192019401210223029F
:104A000024022502260227022A02B300B4006F0006
:064A1000700081828300AA
:00000001FF
